{
  "contractName": "AdvancedStorage",
  "abi": [
    {
      "inputs": [],
      "payable": false,
      "stateMutability": "nonpayable",
      "type": "constructor"
    },
    {
      "anonymous": false,
      "inputs": [
        {
          "indexed": false,
          "internalType": "uint256",
          "name": "id",
          "type": "uint256"
        },
        {
          "indexed": false,
          "internalType": "string",
          "name": "_message",
          "type": "string"
        }
      ],
      "name": "AddId",
      "type": "event"
    },
    {
      "constant": true,
      "inputs": [
        {
          "internalType": "uint256",
          "name": "",
          "type": "uint256"
        }
      ],
      "name": "ids",
      "outputs": [
        {
          "internalType": "uint256",
          "name": "",
          "type": "uint256"
        }
      ],
      "payable": false,
      "stateMutability": "view",
      "type": "function"
    },
    {
      "constant": false,
      "inputs": [
        {
          "internalType": "uint256",
          "name": "_id",
          "type": "uint256"
        }
      ],
      "name": "add",
      "outputs": [],
      "payable": false,
      "stateMutability": "nonpayable",
      "type": "function"
    },
    {
      "constant": true,
      "inputs": [
        {
          "internalType": "uint256",
          "name": "_idx",
          "type": "uint256"
        }
      ],
      "name": "get",
      "outputs": [
        {
          "internalType": "uint256",
          "name": "",
          "type": "uint256"
        }
      ],
      "payable": false,
      "stateMutability": "view",
      "type": "function"
    },
    {
      "constant": true,
      "inputs": [],
      "name": "getAll",
      "outputs": [
        {
          "internalType": "uint256[]",
          "name": "",
          "type": "uint256[]"
        }
      ],
      "payable": false,
      "stateMutability": "view",
      "type": "function"
    },
    {
      "constant": true,
      "inputs": [],
      "name": "length",
      "outputs": [
        {
          "internalType": "uint256",
          "name": "",
          "type": "uint256"
        }
      ],
      "payable": false,
      "stateMutability": "view",
      "type": "function"
    }
  ],
  "bytecode": "0x608060405234801561001057600080fd5b506000600a90806001815401808255809150509060018203906000526020600020016000909192909190915055506103048061004d6000396000f3fe608060405234801561001057600080fd5b50600436106100575760003560e01c80631003e2d21461005c5780631f7b6d321461008a57806353ed5143146100a85780639507d39a14610107578063fac333ac14610149575b600080fd5b6100886004803603602081101561007257600080fd5b810190808035906020019092919050505061018b565b005b61009261022a565b6040518082815260200191505060405180910390f35b6100b0610236565b6040518080602001828103825283818151815260200191508051906020019060200280838360005b838110156100f35780820151818401526020810190506100d8565b505050509050019250505060405180910390f35b6101336004803603602081101561011d57600080fd5b810190808035906020019092919050505061028e565b6040518082815260200191505060405180910390f35b6101756004803603602081101561015f57600080fd5b81019080803590602001909291905050506102ae565b6040518082815260200191505060405180910390f35b60008190806001815401808255809150509060018203906000526020600020016000909192909190915055507faaefae764cc3085a129a33b88d783a2532d7877e7e575af4df27771d64b922f0816040518082815260200180602001828103825260118152602001807f494420686173206265656e2073617665640000000000000000000000000000008152506020019250505060405180910390a150565b60008080549050905090565b6060600080548060200260200160405190810160405280929190818152602001828054801561028457602002820191906000526020600020905b815481526020019060010190808311610270575b5050505050905090565b600080828154811061029c57fe5b90600052602060002001549050919050565b600081815481106102bb57fe5b90600052602060002001600091509050548156fea265627a7a723158205ebfa7c473945ffd128a941d5093fd03115f9a1bfaf940221d2a17bd6c13ed0664736f6c63430005100032",
  "source": "pragma solidity >=0.4.21 <0.7.0;\n\ncontract HelloWorld {\n\n    function hello() pure public returns (string memory){\n        return 'Hello Dapp30 World';\n    }\n}\n\ncontract SimpleStorage {\n    string public data;\n\n    event DataSet(string data, string _message);\n\n    function set(string memory _data) public {\n        data = _data;\n        emit DataSet(data, \"Data has been saved\");\n\n    }\n\n    function get() view public returns(string memory) {\n        return data;\n    }\n\n}\n\ncontract AdvancedStorage {\n\n    /* DATA VARIABLES ******************************************************************/\n    uint[] public ids;\n\n    /* EVENT DEFINITIONS ***************************************************************/\n    event AddId(uint id, string _message);\n\n    /* CONSTRUCTOR *********************************************************************/\n    constructor() public {\n        ids.push(10);\n    }\n\n    function add(uint _id) public {\n        ids.push(_id);\n        emit AddId(_id, \"ID has been saved\");\n    }\n\n    function get(uint _idx) view public returns(uint) {\n        return ids[_idx];\n    }\n    function getAll() view public returns(uint[] memory) {\n        return ids;\n    }\n    function length() view public returns(uint) {\n        return ids.length;\n    }\n}\n",
  "sourcePath": "/home/dapp/contracts/FiveDays.sol",
  "compiler": {
    "name": "solc",
    "version": "0.5.16+commit.9c3226ce.Emscripten.clang"
  },
  "schemaVersion": "3.1.0",
  "updatedAt": "2020-05-22T16:06:06.394Z",
  "networkType": "ethereum",
  "devdoc": {
    "methods": {}
  },
  "userdoc": {
    "methods": {}
  }
}