{
  "contractName": "Crud",
  "abi": [
    {
      "inputs": [],
      "payable": false,
      "stateMutability": "nonpayable",
      "type": "constructor"
    },
    {
      "anonymous": false,
      "inputs": [
        {
          "indexed": false,
          "internalType": "string",
          "name": "name",
          "type": "string"
        },
        {
          "indexed": false,
          "internalType": "uint256",
          "name": "id",
          "type": "uint256"
        },
        {
          "indexed": false,
          "internalType": "string",
          "name": "_message",
          "type": "string"
        }
      ],
      "name": "CreateUser",
      "type": "event"
    },
    {
      "anonymous": false,
      "inputs": [
        {
          "indexed": false,
          "internalType": "string",
          "name": "name",
          "type": "string"
        },
        {
          "indexed": false,
          "internalType": "string",
          "name": "_message",
          "type": "string"
        }
      ],
      "name": "DeleteUser",
      "type": "event"
    },
    {
      "anonymous": false,
      "inputs": [
        {
          "indexed": false,
          "internalType": "string",
          "name": "name",
          "type": "string"
        },
        {
          "indexed": false,
          "internalType": "string",
          "name": "_message",
          "type": "string"
        }
      ],
      "name": "UpdateUser",
      "type": "event"
    },
    {
      "constant": true,
      "inputs": [],
      "name": "nextId",
      "outputs": [
        {
          "internalType": "uint256",
          "name": "",
          "type": "uint256"
        }
      ],
      "payable": false,
      "stateMutability": "view",
      "type": "function"
    },
    {
      "constant": true,
      "inputs": [
        {
          "internalType": "uint256",
          "name": "",
          "type": "uint256"
        }
      ],
      "name": "users",
      "outputs": [
        {
          "internalType": "uint256",
          "name": "id",
          "type": "uint256"
        },
        {
          "internalType": "string",
          "name": "name",
          "type": "string"
        }
      ],
      "payable": false,
      "stateMutability": "view",
      "type": "function"
    },
    {
      "constant": false,
      "inputs": [
        {
          "internalType": "string",
          "name": "_name",
          "type": "string"
        }
      ],
      "name": "create",
      "outputs": [],
      "payable": false,
      "stateMutability": "nonpayable",
      "type": "function"
    },
    {
      "constant": true,
      "inputs": [
        {
          "internalType": "uint256",
          "name": "_id",
          "type": "uint256"
        }
      ],
      "name": "read",
      "outputs": [
        {
          "internalType": "uint256",
          "name": "",
          "type": "uint256"
        },
        {
          "internalType": "string",
          "name": "",
          "type": "string"
        }
      ],
      "payable": false,
      "stateMutability": "view",
      "type": "function"
    },
    {
      "constant": false,
      "inputs": [
        {
          "internalType": "uint256",
          "name": "_id",
          "type": "uint256"
        },
        {
          "internalType": "string",
          "name": "_name",
          "type": "string"
        }
      ],
      "name": "update",
      "outputs": [],
      "payable": false,
      "stateMutability": "nonpayable",
      "type": "function"
    },
    {
      "constant": false,
      "inputs": [
        {
          "internalType": "uint256",
          "name": "_id",
          "type": "uint256"
        }
      ],
      "name": "destroy",
      "outputs": [],
      "payable": false,
      "stateMutability": "nonpayable",
      "type": "function"
    }
  ],
  "bytecode": "0x60806040526001805534801561001457600080fd5b506000604051806040016040528060015481526020016040518060400160405280600581526020017f41646d696e000000000000000000000000000000000000000000000000000000815250815250908060018154018082558091505090600182039060005260206000209060020201600090919290919091506000820151816000015560208201518160010190805190602001906100b49291906100cf565b50505050600160008154809291906001019190505550610174565b828054600181600116156101000203166002900490600052602060002090601f016020900481019282601f1061011057805160ff191683800117855561013e565b8280016001018555821561013e579182015b8281111561013d578251825591602001919060010190610122565b5b50905061014b919061014f565b5090565b61017191905b8082111561016d576000816000905550600101610155565b5090565b90565b610c66806101836000396000f3fe608060405234801561001057600080fd5b50600436106100625760003560e01c8063365b98b21461006757806361b8ce8c146101155780639d11877014610133578063b6a46b3b14610161578063ed2e5a971461021c578063f745630f146102ca575b600080fd5b6100936004803603602081101561007d57600080fd5b810190808035906020019092919050505061038f565b6040518083815260200180602001828103825283818151815260200191508051906020019080838360005b838110156100d95780820151818401526020810190506100be565b50505050905090810190601f1680156101065780820380516001836020036101000a031916815260200191505b50935050505060405180910390f35b61011d610458565b6040518082815260200191505060405180910390f35b61015f6004803603602081101561014957600080fd5b810190808035906020019092919050505061045e565b005b61021a6004803603602081101561017757600080fd5b810190808035906020019064010000000081111561019457600080fd5b8201836020820111156101a657600080fd5b803590602001918460018302840111640100000000831117156101c857600080fd5b91908080601f016020809104026020016040519081016040528093929190818152602001838380828437600081840152601f19601f820116905080830192505050505050509192919290505050610655565b005b6102486004803603602081101561023257600080fd5b81019080803590602001909291905050506107b7565b6040518083815260200180602001828103825283818151815260200191508051906020019080838360005b8381101561028e578082015181840152602081019050610273565b50505050905090810190601f1680156102bb5780820380516001836020036101000a031916815260200191505b50935050505060405180910390f35b61038d600480360360408110156102e057600080fd5b81019080803590602001909291908035906020019064010000000081111561030757600080fd5b82018360208201111561031957600080fd5b8035906020019184600183028401116401000000008311171561033b57600080fd5b91908080601f016020809104026020016040519081016040528093929190818152602001838380828437600081840152601f19601f8201169050808301925050505050505091929192905050506108ab565b005b6000818154811061039c57fe5b9060005260206000209060020201600091509050806000015490806001018054600181600116156101000203166002900480601f01602080910402602001604051908101604052809291908181526020018280546001816001161561010002031660029004801561044e5780601f106104235761010080835404028352916020019161044e565b820191906000526020600020905b81548152906001019060200180831161043157829003601f168201915b5050505050905082565b60015481565b6000610469826109ff565b90506000818154811061047857fe5b906000526020600020906002020160008082016000905560018201600061049f9190610ac4565b50507f83ebefd9c8fd6eb1a107606987217ff5853efbb07950f89e7bc0511b8a530543600082815481106104cf57fe5b906000526020600020906002020160010160405180806020018060200183810383528481815460018160011615610100020316600290048152602001915080546001816001161561010002031660029004801561056d5780601f106105425761010080835404028352916020019161056d565b820191906000526020600020905b81548152906001019060200180831161055057829003601f168201915b5050838103825260168152602001807f5573657220686173206265656e2064656c657465642e00000000000000000000815250602001935050505060405180910390a1600060405180604001604052808481526020016040518060400160405280600581526020017f424c414e4b0000000000000000000000000000000000000000000000000000008152508152509080600181540180825580915050906001820390600052602060002090600202016000909192909190915060008201518160000155602082015181600101908051906020019061064d929190610b0c565b505050505050565b60006040518060400160405280600154815260200183815250908060018154018082558091505090600182039060005260206000209060020201600090919290919091506000820151816000015560208201518160010190805190602001906106bf929190610b0c565b505050507fcac4f30fed50c9d6a50823d94a6357fa5fd892d6211b25aeac7af05748bdd1ec81600154604051808060200183815260200180602001838103835285818151815260200191508051906020019080838360005b83811015610732578082015181840152602081019050610717565b50505050905090810190601f16801561075f5780820380516001836020036101000a031916815260200191505b50838103825260168152602001807f5573657220686173206265656e20637265617465642e0000000000000000000081525060200194505050505060405180910390a160016000815480929190600101919050555050565b6000606060006107c6846109ff565b9050600081815481106107d557fe5b906000526020600020906002020160000154600082815481106107f457fe5b9060005260206000209060020201600101808054600181600116156101000203166002900480601f01602080910402602001604051908101604052809291908181526020018280546001816001161561010002031660029004801561089a5780601f1061086f5761010080835404028352916020019161089a565b820191906000526020600020905b81548152906001019060200180831161087d57829003601f168201915b505050505090509250925050915091565b60006108b6836109ff565b905081600082815481106108c657fe5b906000526020600020906002020160010190805190602001906108ea929190610b8c565b507fda6b918e4b5d1908214dd30e227ef8f39cd1eaab64fef6a8f4c2ed1c092702666000828154811061091957fe5b90600052602060002090600202016001016040518080602001806020018381038352848181546001816001161561010002031660029004815260200191508054600181600116156101000203166002900480156109b75780601f1061098c576101008083540402835291602001916109b7565b820191906000526020600020905b81548152906001019060200180831161099a57829003601f168201915b5050838103825260168152602001807f5573657220686173206265656e20757064617465642e00000000000000000000815250602001935050505060405180910390a1505050565b600080600090505b600080549050811015610a50578260008281548110610a2257fe5b9060005260206000209060020201600001541415610a435780915050610abf565b8080600101915050610a07565b506040517f08c379a00000000000000000000000000000000000000000000000000000000081526004018080602001828103825260148152602001807f5573657220646f6573206e6f742065786973742100000000000000000000000081525060200191505060405180910390fd5b919050565b50805460018160011615610100020316600290046000825580601f10610aea5750610b09565b601f016020900490600052602060002090810190610b089190610c0c565b5b50565b828054600181600116156101000203166002900490600052602060002090601f016020900481019282601f10610b4d57805160ff1916838001178555610b7b565b82800160010185558215610b7b579182015b82811115610b7a578251825591602001919060010190610b5f565b5b509050610b889190610c0c565b5090565b828054600181600116156101000203166002900490600052602060002090601f016020900481019282601f10610bcd57805160ff1916838001178555610bfb565b82800160010185558215610bfb579182015b82811115610bfa578251825591602001919060010190610bdf565b5b509050610c089190610c0c565b5090565b610c2e91905b80821115610c2a576000816000905550600101610c12565b5090565b9056fea265627a7a72315820faeec3e61b1a672cbe2729db0d348aa39be227154daa701c41af4da9a1b19be264736f6c63430005100032",
  "source": "pragma solidity >=0.4.21 <0.7.0;\n\ncontract HelloWorld {\n\n    function hello() pure public returns (string memory){\n        return 'Hello Dapp30 World';\n    }\n}\n\ncontract SimpleStorage {\n    string public data;\n\n    event DataSet(string data, string _message);\n\n    function set(string memory _data) public {\n        data = _data;\n        emit DataSet(data, \"Data has been saved\");\n\n    }\n\n    function get() view public returns(string memory) {\n        return data;\n    }\n\n}\n\ncontract AdvancedStorage {\n\n    /* DATA VARIABLES ******************************************************************/\n    uint[] public ids;\n\n    /* EVENT DEFINITIONS ***************************************************************/\n    event AddId(uint id, string _message);\n\n    /* CONSTRUCTOR *********************************************************************/\n    constructor() public {\n        ids.push(10);\n    }\n\n    function add(uint _id) public {\n        ids.push(_id);\n        emit AddId(_id, \"ID has been saved\");\n    }\n\n    function get(uint _idx) view public returns(uint) {\n        return ids[_idx];\n    }\n    function getAll() view public returns(uint[] memory) {\n        return ids;\n    }\n    function length() view public returns(uint) {\n        return ids.length;\n    }\n}\n\n/* Crud Smart Contract *********************************************************/\ncontract Crud {\n\n    /* DATA VARIABLES ******************************************************************/\n    struct User {\n        uint id;\n        string name;\n    }\n    User[] public users;\n    uint public nextId = 1;\n\n    /* EVENT DEFINITIONS ***************************************************************/\n    event CreateUser(string name, uint id, string _message);\n    event UpdateUser(string name, string _message);\n    event DeleteUser(string name, string _message);\n\n    /* FUNCTION MODIFIERS **************************************************************/\n\n    /* CONSTRUCTOR *********************************************************************/\n    constructor() public {\n        users.push(User(nextId, 'Admin'));\n        nextId++;\n    }\n\n    /* UTILITY FUNCTIONS ***************************************************************/\n    function find(uint _id) view internal returns(uint){\n        for(uint i = 0; i < users.length; i++) {\n            if(users[i].id == _id) {\n                return i;\n            }\n        }\n        revert('User does not exist!');\n    }\n\n    /* SMART CONTRACT FUNCTIONS ********************************************************/\n    function create(string memory _name) public {\n        users.push(User(nextId, _name));\n        emit CreateUser(_name, nextId, \"User has been created.\");\n        nextId++;\n    }\n\n    function read(uint _id) view public returns(uint, string memory) {\n        uint i = find(_id);\n        return(users[i].id, users[i].name);\n    }\n\n    function update(uint _id, string memory _name) public {\n        uint i = find(_id);\n        users[i].name = _name;\n        emit UpdateUser(users[i].name, \"User has been updated.\");\n    }\n\n    function destroy(uint _id) public {\n        uint i = find(_id);\n        delete users[i];\n        emit DeleteUser(users[i].name, \"User has been deleted.\");\n        users.push(User(_id, 'BLANK'));\n    }\n\n    /** DATA CONTRACT INTERFACE ************************************************************/\n}\n\n/* FlightSurety Smart Contract *********************************************************/\n/* DATA VARIABLES ******************************************************************/\n/* EVENT DEFINITIONS ***************************************************************/\n/* FUNCTION MODIFIERS **************************************************************/\n/* CONSTRUCTOR *********************************************************************/\n/* UTILITY FUNCTIONS ***************************************************************/\n/* SMART CONTRACT FUNCTIONS ********************************************************/\n/** DATA CONTRACT INTERFACE ************************************************************/\n",
  "sourcePath": "/home/dapp/contracts/FiveDays.sol",
  "compiler": {
    "name": "solc",
    "version": "0.5.16+commit.9c3226ce.Emscripten.clang"
  },
  "schemaVersion": "3.1.0",
  "updatedAt": "2020-05-30T11:52:09.263Z",
  "networkType": "ethereum",
  "devdoc": {
    "methods": {}
  },
  "userdoc": {
    "methods": {}
  }
}