{
  "contractName": "HelloWorld",
  "abi": [
    {
      "anonymous": false,
      "inputs": [
        {
          "indexed": false,
          "internalType": "string",
          "name": "_message",
          "type": "string"
        }
      ],
      "name": "HelloWorld",
      "type": "event"
    },
    {
      "constant": false,
      "inputs": [],
      "name": "hello",
      "outputs": [
        {
          "internalType": "string",
          "name": "",
          "type": "string"
        }
      ],
      "payable": false,
      "stateMutability": "nonpayable",
      "type": "function"
    }
  ],
  "bytecode": "0x608060405234801561001057600080fd5b5061018d806100206000396000f3fe608060405234801561001057600080fd5b506004361061002b5760003560e01c806319ff1d2114610030575b600080fd5b6100386100b3565b6040518080602001828103825283818151815260200191508051906020019080838360005b8381101561007857808201518184015260208101905061005d565b50505050905090810190601f1680156100a55780820380516001836020036101000a031916815260200191505b509250505060405180910390f35b60607f86066750c0fd4457fd16f79750914fbd72db952f2ff0a7b5c6a2a531bc15ce2c6040518080602001828103825260138152602001807f48656c6c6f20686173206265656e20736169640000000000000000000000000081525060200191505060405180910390a16040518060400160405280601281526020017f48656c6c6f2044617070333020576f726c64000000000000000000000000000081525090509056fea265627a7a723158203588438a82c683405d1a43ed99dfdb7ddf550bc63a0bd7f1a93596bc5b154deb64736f6c63430005100032",
  "source": "pragma solidity >=0.4.21 <0.7.0;\n\ncontract HelloWorld {\n    event HelloWorld(string _message);\n\n    function hello() public returns (string memory){\n        emit HelloWorld(\"Hello has been said\");\n        return 'Hello Dapp30 World';\n    }\n}\n\n",
  "sourcePath": "/home/dapp/contracts/Hello.sol",
  "compiler": {
    "name": "solc",
    "version": "0.5.16+commit.9c3226ce.Emscripten.clang"
  },
  "schemaVersion": "3.1.0",
  "updatedAt": "2020-05-15T22:26:59.412Z",
  "devdoc": {
    "methods": {}
  },
  "userdoc": {
    "methods": {}
  }
}