{
  "contractName": "SimpleStorage",
  "abi": [
    {
      "anonymous": false,
      "inputs": [
        {
          "indexed": false,
          "internalType": "string",
          "name": "data",
          "type": "string"
        },
        {
          "indexed": false,
          "internalType": "string",
          "name": "_message",
          "type": "string"
        }
      ],
      "name": "DataSet",
      "type": "event"
    },
    {
      "constant": true,
      "inputs": [],
      "name": "data",
      "outputs": [
        {
          "internalType": "string",
          "name": "",
          "type": "string"
        }
      ],
      "payable": false,
      "stateMutability": "view",
      "type": "function"
    },
    {
      "constant": false,
      "inputs": [
        {
          "internalType": "string",
          "name": "_data",
          "type": "string"
        }
      ],
      "name": "set",
      "outputs": [],
      "payable": false,
      "stateMutability": "nonpayable",
      "type": "function"
    },
    {
      "constant": true,
      "inputs": [],
      "name": "get",
      "outputs": [
        {
          "internalType": "string",
          "name": "",
          "type": "string"
        }
      ],
      "payable": false,
      "stateMutability": "view",
      "type": "function"
    }
  ],
  "bytecode": "0x608060405234801561001057600080fd5b5061052e806100206000396000f3fe608060405234801561001057600080fd5b50600436106100415760003560e01c80634ed3885e146100465780636d4ce63c1461010157806373d4a13a14610184575b600080fd5b6100ff6004803603602081101561005c57600080fd5b810190808035906020019064010000000081111561007957600080fd5b82018360208201111561008b57600080fd5b803590602001918460018302840111640100000000831117156100ad57600080fd5b91908080601f016020809104026020016040519081016040528093929190818152602001838380828437600081840152601f19601f820116905080830192505050505050509192919290505050610207565b005b610109610314565b6040518080602001828103825283818151815260200191508051906020019080838360005b8381101561014957808201518184015260208101905061012e565b50505050905090810190601f1680156101765780820380516001836020036101000a031916815260200191505b509250505060405180910390f35b61018c6103b6565b6040518080602001828103825283818151815260200191508051906020019080838360005b838110156101cc5780820151818401526020810190506101b1565b50505050905090810190601f1680156101f95780820380516001836020036101000a031916815260200191505b509250505060405180910390f35b806000908051906020019061021d929190610454565b507fccf450b45e6cbfc0f12b3415c0f22be095659c080610a56b84128410073058dc60006040518080602001806020018381038352848181546001816001161561010002031660029004815260200191508054600181600116156101000203166002900480156102ce5780601f106102a3576101008083540402835291602001916102ce565b820191906000526020600020905b8154815290600101906020018083116102b157829003601f168201915b5050838103825260138152602001807f4461746120686173206265656e20736176656400000000000000000000000000815250602001935050505060405180910390a150565b606060008054600181600116156101000203166002900480601f0160208091040260200160405190810160405280929190818152602001828054600181600116156101000203166002900480156103ac5780601f10610381576101008083540402835291602001916103ac565b820191906000526020600020905b81548152906001019060200180831161038f57829003601f168201915b5050505050905090565b60008054600181600116156101000203166002900480601f01602080910402602001604051908101604052809291908181526020018280546001816001161561010002031660029004801561044c5780601f106104215761010080835404028352916020019161044c565b820191906000526020600020905b81548152906001019060200180831161042f57829003601f168201915b505050505081565b828054600181600116156101000203166002900490600052602060002090601f016020900481019282601f1061049557805160ff19168380011785556104c3565b828001600101855582156104c3579182015b828111156104c25782518255916020019190600101906104a7565b5b5090506104d091906104d4565b5090565b6104f691905b808211156104f25760008160009055506001016104da565b5090565b9056fea265627a7a72315820ec6820c64c8bed053c2ef80d53a6b253115fbed9fa35d96d638420d12beae70864736f6c63430005100032",
  "source": "pragma solidity >=0.4.21 <0.7.0;\n\ncontract HelloWorld {\n\n    function hello() pure public returns (string memory){\n        return 'Hello Dapp30 World';\n    }\n}\n\ncontract SimpleStorage {\n    string public data;\n\n    event DataSet(string data, string _message);\n\n    function set(string memory _data) public {\n        data = _data;\n        emit DataSet(data, \"Data has been saved\");\n\n    }\n\n    function get() view public returns(string memory) {\n        return data;\n    }\n\n}\n\ncontract AdvancedStorage {\n\n    /* DATA VARIABLES ******************************************************************/\n    uint[] public ids;\n\n    /* EVENT DEFINITIONS ***************************************************************/\n    event AddId(uint id, string _message);\n\n    /* CONSTRUCTOR *********************************************************************/\n    constructor() public {\n        ids.push(10);\n    }\n\n    function add(uint _id) public {\n        ids.push(_id);\n        emit AddId(_id, \"ID has been saved\");\n    }\n\n    function get(uint _idx) view public returns(uint) {\n        return ids[_idx];\n    }\n    function getAll() view public returns(uint[] memory) {\n        return ids;\n    }\n    function length() view public returns(uint) {\n        return ids.length;\n    }\n}\n",
  "sourcePath": "/home/dapp/contracts/FiveDays.sol",
  "compiler": {
    "name": "solc",
    "version": "0.5.16+commit.9c3226ce.Emscripten.clang"
  },
  "schemaVersion": "3.1.0",
  "updatedAt": "2020-05-26T15:24:43.585Z",
  "networkType": "ethereum",
  "devdoc": {
    "methods": {}
  },
  "userdoc": {
    "methods": {}
  }
}